:0200000076295F
:10000800FF00030E8301D9000A08D8008A018B1C5F
:1000180017288B10220823040130031D0030A2008A
:10002800A3000030A30058088A00590E8300FF0E71
:040038007F0E09002E
:0E003C008312031357088A005608820008003A
:10004A001E208A110A128000840AD60A0319D70AC6
:08005A00F003031D2528080036
:10006200831203132208A0002308A1000330A40076
:100072000030A50080302506F00080307002031D9C
:10008200442800302402031C6B282408F0002508B1
:10009200F100F00DF10D70107008263E840000088A
:1000A20088005130870024082504031966280B3084
:1000B200FB002630FC005D30FD00FD0B5E28FC0BD2
:1000C2005E28FB0B5E28000000000130A402031C26
:1000D200A5033B2821082306031D712822082006B8
:1000E20003197428DD288618812821082306031D98
:1000F2007C2822082006031D8128213087007428CD
:1001020021082306031D87282208200603198A28AE
:10011200DD280330A4000030A50080302506F00061
:1001220080307002031D972800302402031CBE2871
:100132002408F0002508F100F00DF10D7010700890
:10014200263E8400000888008A308700240825049F
:100152000319B9280B30FB002630FC005D30FD008E
:10016200FD0BB128FC0BB128FB0BB12800000000ED
:100172000130A402031CA5038E2821082306031DB7
:10018200C428220820060319C728DD288618D42887
:1001920021082306031DCF2822082006031DD42888
:1001A2000C308700C72821082306031DDA282208FD
:0A01B20020060319DD28DD280800EF
:1001BC00831203138801603087002208A0002308F3
:1001CC00A1000F30A4000030A50080302506F000FF
:1001DC0080307002031DF42800302402031C2E29E9
:1001EC0021082306031DFC28220820060319FF28DA
:1001FC002E292408F0002508F100F00DF10D7010E7
:10020C007008263E8400000888008030F0008030A2
:10021C0025067002031D142924080C3C0318192907
:10022C00D13087001B29E13087000B30FB002630D2
:10023C00FC005D30FD00FD0B2129FC0B2129FB0B83
:10024C002129000000000130A402031CA503EB28A7
:10025C001730A4000030A50080302506F000803057
:10026C007002031D3B2900302402031C7529210850
:10027C002306031D43292208200603194629752944
:10028C002408F0002508F100F00DF10D7010700835
:10029C00263E8400000888008030F000803025065F
:1002AC007002031D5B292408143C03186029CA3012
:1002BC0087006229CC3087000B30FB002630FC0015
:1002CC005D30FD00FD0B6829FC0B6829FB0B6829D0
:1002DC00000000000130A402031CA5033229080011
:1002EC00C62103308316031386008701880183120D
:1002FC00870188018B170B16220823040319882900
:0A030C00DE208929312082298A2988
:10038C0020308400363083120313F0009030D600F6
:08039C000130D7002520080004
:040320000034003471
:04032400003400346D
:040328000034003469
:10032C00003400340134003402340034033400341B
:10033C0004340034053400340634003407340034FB
:10034C0008340034093400341034003411340034CF
:10035C0012340034133400341434003415340034A3
:10036C001634003417340034183400341934003483
:10037C00203400342134003422340034233400344B
:02400E004A2F37
:00000001FF
